:020000040000FA
:100000000C94B6060C947C4F0C94514F0C94264FD4
:100010000C94FB4E0C94D04E0C94A54E0C947A4E3E
:100020000C944F4E0C94E7060C94E7060C94E706EC
:100030000C94E7060C94BF500C94E7060C94E7066A
:100040000C94E7060C9491500C94E7060C94E70688
:100050000C94E7060C94E7060C94E7060C94054E06
:100060000C94E7060C94D14F0C94A74F0C94E70620
:100070000C94E7060C94E7060C94E7060C94E7064C
:100080000C9463500C94E7060C94E7060C94E70676
:100090000C94E7060C94E7060C94E7060C94E850E1
:1000A0000C94E7060C94E7060C9435500C94E70684
:1000B0000C94E7060C94E7060C94E7060C940750A2
:1000C0000C94E7060C94E7060C94E7060C94E706FC
:1000D0000C94E7060C94E7060C94E7060C94E706EC
:1000E0000C94E7060C9423620C944D080C946B0A54
:1000F0000C9477090C94B4090C943E080C941308E2
:100100000C9420610C94FE070C946D090C94DC098E
:100110000C9479080C94E2110C9457080C945362D7
:100120000C94B6120C94F6620C94F0070C943910EF
:100130000C94BD0A0C944C090C94B80C0C946D0AE8
:100140000C9419520C949A0A0C946A110C940E187F
:100150000C94A90A0C949B090C946C0A0C94A16150
:100160000C940C080C94E9070C94500B0C94610847
:100170000C94E2070C9433620C9446080C94050826
:100180000C94FF0D0C94D2090C945D080C94BE09DC
:100190000C9459090C94721C0C94FF110C94E117E7
:1001A0000C9446130C94CC1A0C94C6070C94530868
:1001B0000C9487090C94861C0C947D080C941C07E5
:1001C0000C9473080C94A7190C94C8090C9437600C
:1001D0000C9454090C94C7170C94B8170C944362F0
:1001E0000C944A080C94030B0C946B080C947F0934
:1001F0000C94D2120C9442080C9478080C94F707D3
:100200000C9465080C94480D0C946F080C94BD5E1A
:100210000C94C6120C941B070C94DE120C949109DA
:100220000C94DA170C9438080C94E6090C946309C2
:100230000C940B110C94CB0A0C94010D0C94A50991
:100240000C94D85F00000000003E5B4F5B3E3E6BAD
:100250004F6B3E1C3E7C3E1C183C7E3C181C577D60
:10026000571C1C5E7F5E1C00183C1800FFE7C3E7AC
:10027000FF0018241800FFE7DBE7FF30483A060EBE
:100280002629792926407F050507407F05253F5A05
:100290003CE73C5A7F3E1C1C08081C1C3E7F142275
:1002A0007F22145F5F005F5F06097F017F00668920
:1002B000956A606060606094A2FFA29408047E0466
:1002C0000810207E201008082A1C08081C2A08088C
:1002D0001E101010100C1E0C1E0C30383E3830064C
:1002E0000E3E0E06000000000000005F0000000748
:1002F000000700147F147F14242A7F2A1223130876
:10030000646236495620500008070300001C224151
:10031000000041221C002A1C7F1C2A08083E0808F5
:1003200000807030000808080808000060600020A5
:10033000100804023E5149453E00427F4000724988
:100340004949462141494D331814127F102745452C
:1003500045393C4A49493141211109073649494942
:1003600036464949291E00001400000040340000B0
:100370000008142241141414141400412214080219
:10038000015909063E415D594E7C1211127C7F498C
:100390004949363E414141227F4141413E7F4949E1
:1003A00049417F090909013E414151737F0808080D
:1003B0007F00417F41002040413F017F08142241DE
:1003C0007F404040407F021C027F7F0408107F3E38
:1003D0004141413E7F090909063E4151215E7F09A5
:1003E000192946264949493203017F01033F40400C
:1003F000403F1F2040201F3F4038403F63140814F7
:100400006303047804036159494D43007F4141412E
:100410000204081020004141417F0402010204400F
:1004200040404040000307080020545478407F2893
:100430004444383844444428384444287F38545489
:10044000541800087E090218A4A49C787F080404AC
:100450007800447D40002040403D007F102844004B
:1004600000417F40007C047804787C0804047838DC
:1004700044444438FC1824241818242418FC7C080C
:10048000040408485454542404043F44243C404089
:10049000207C1C2040201C3C4030403C442810283C
:1004A000444C9090907C4464544C44000836410085
:1004B0000000770000004136080002010204023CFF
:1004C0002623263C1EA1A161123A4040207A3854CE
:1004D0005455592155557941225454784221555447
:1004E000784020545579400C1E527212395555559A
:1004F00059395454545939555454580000457C4185
:100500000002457D420001457C407D1211127DF0C4
:10051000282528F07C545545002054547C547C0AEE
:10052000097F4932494949323A4444443A324A48B7
:1005300048303A4141217A3A42402078009DA0A0BB
:100540007D3D4242423D3D4040403D3C24FF24240D
:10055000487E4943662B2FFC2F2BFF0929F620C02C
:10056000887E090320545479410000447D4130487D
:10057000484A32384040227A007A0A0A727D0D19C0
:10058000317D2629292F28262929292630484D4022
:1005900020380808080808080808382F10C8ACBA1E
:1005A0002F102834FA00007B000008142A1422229D
:1005B000142A14085500550055AA55AA55AAFF55E6
:1005C000FF55FF000000FF00101010FF001414146E
:1005D000FF001010FF00FF1010F010F0141414FCB6
:1005E000001414F700FF0000FF00FF1414F404FCD3
:1005F000141417101F10101F101F1414141F0010B4
:100600001010F0000000001F101010101F1010102C
:1006100010F010000000FF1010101010101010103B
:10062000FF10000000FF140000FF00FF00001F107B
:10063000170000FC04F414141710171414F404F435
:100640000000FF00F714141414141414F700F71426
:100650001414171410101F101F141414F414101075
:10066000F010F000001F101F0000001F1400000019
:10067000FC140000F010F01010FF10FF141414FF11
:10068000141010101F00000000F010FFFFFFFFFF0C
:10069000F0F0F0F0F0FFFFFF0000000000FFFF0FA0
:1006A0000F0F0F0F3844443844FC4A4A4A347E0244
:1006B000020606027E027E026355494163384444C5
:1006C0003C04407E201E2006027E020299A5E7A57A
:1006D000991C2A492A1C4C7201724C304A4D4D30EB
:1006E0003048784830BC625A463D3E494949007E10
:1006F0000101017E2A2A2A2A2A44445F44444051A7
:100700004A444040444A51400000FF0103E080FF5A
:10071000000008086B6B083612362436060F090FE6
:1007200006000018180000001010003040FF010102
:10073000001F01011E00191D1712003C3C3C3C002B
:1007400000000000000103070F1F3F7F0080C0E092
:10075000F0F8FCFEDB40A4A62EAF2000A1C8D30019
:10076000408DAED580A800006000000000000000B1
:1007700000000000000000E0000000000000000099
:10078000000000000001E000000000000000000088
:100790000000000001F00000000000000000000068
:1007A00000000003F0000000000000000000000056
:1007B000000007F000000000000000000000000042
:1007C0000007F8000000000000000000000000002A
:1007D0000FF800000003C0007E000001E0007F0F62
:1007E000F800000003C000FE000001E000FFEFF889
:1007F00000000003C000FE000001E000FFFFF80061
:10080000000003C000F00000000F007FFE7FC0006A
:100810000003C000F00000000F003FFE7FF83FF132
:10082000FBCFFCFEF3BC3DEFE01FFE7FFF7FFBFF35
:10083000DFFEFEFFBC3DEFE01FC6FFFF7FFBFFDFDB
:10084000FEFEFFBC3DEFE00FE3C7FE787BC3DE1E7C
:10085000F0FFBC3DEF0007FF87FC787BC3DE1EF096
:10086000F83C3DEF0001FFFFF0007BC3C01EF0F03D
:100870003C3DEF0001F37FE03FFBC3CFFEF0F03CD7
:100880003DEF0003E33F807FFBC3DFFEF0F03C3D24
:10089000EF0007E73C00787BC3DE1EF0F03C3DEF45
:1008A0000007FFBE00787BC3DE1EF0F03C3DEF008A
:1008B00007FFFE00787BC3DE1EF0F03C3DEF000F2B
:1008C000FFFE007FFBFFDFFEF0F03FFDEFE00FFFDC
:1008D000FF007FFBFFDFFEF0F03FFDEFE00FF9FFD1
:1008E000003E79F9CF9EF0F01F3DE7E01FF1FF00D9
:1008F00000000000000000000000001F80FF007FDB
:10090000FFFFFFFFFFFFFFFFFFE01C007F007FFFF7
:10091000FFFFFEB46D888D18E000001F007FFFFF11
:10092000FFFE95AD7DB577E000000F007FFFFFFF74
:10093000FEA5AD9D8D19E0000006007FFFFFFFFEC4
:10094000B5ADEDB57EE000000000000180000000C4
:100950000000000000000380000000000000000014
:100960000007C000000000000000000007C00000F9
:10097000000000000000000FC000000000000000A8
:1009800000001FE00000000000000000001FE00069
:1009900000000000000000003FE000000000000038
:1009A0000000003FF00000000000000000007FF0A9
:1009B000000000000000001FF87FF00000000000B1
:1009C00000003FFE7FF0000000000000003FFF7FBE
:1009D000F0000000000000001FFFFBE0000000002E
:1009E0000000000FFFF9FFC00000000000000FFF33
:1009F000F9FFF800000000000007FFF1FFFF000012
:100A00000000000003FC73FFFF80000000000001F5
:100A1000FE3FFFFF80000000000000FF1E0FFF00F0
:100A20000000000000007FFE1FFC0000000000002E
:100A3000003FFFFFF8000000000000000FDFFFE0B4
:100A4000000000000000001F19FFC00000000000AF
:100A500000003F3CFF00000000000000007E7CF82A
:100A600000000000000000007FFE7C00000000008D
:100A7000000000FFFFFC0000000000000000FFFF7E
:100A8000FE0000000000000000FFFFFE000000006C
:100A900000000001FFEFFE0000000000000001FF69
:100AA000CFFE0000000000000003FF07FE00000072
:100AB0000000000003FC07FE00000000000000032F
:100AC000F003FE00000000000000018000FE0000B6
:100AD00000000000000000007E0000000000000098
:100AE0000000003E000000000000000000000C00BC
:100AF0000000000000078000FC000003C0000000B0
:100B0000078001FC000003C0000000078001FC001A
:100B10000003C0000000078001E00000001E00008C
:100B200000078001E00000001E007FE3F79FF9FD51
:100B3000E7787BDFC0FFF7FFBFFDFDFF787BDFC0FD
:100B4000FFF7FFBFFDFDFF787BDFC0F0F787BC3DFF
:100B5000E1FF787BDE00F0F787BC3DE1F0787BDEDB
:100B60000000F787803DE1E0787BDE007FF7879F1C
:100B7000FDE1E0787BDE00FFF787BFFDE1E0787BF9
:100B8000DE00F0F787BC3DE1E0787BDE00F0F78720
:100B9000BC3DE1E0787BDE00F0F787BC3DE1E0782A
:100BA0007BDE00FFF7FFBFFDE1E07FFBDFC0FFF76B
:100BB000FFBFFDE1E07FFBDFC07CF3F39F3DE1E0A1
:100BC0003E7BCFC00000000000000000000000FFDE
:100BD000FFFFFFFFFFFFFFFFFFC0FFFFFFFFFD68FD
:100BE000DB111A31C0FFFFFFFFFD2B5AFB6AEFC07C
:100BF000FFFFFFFFFD4B5B3B1A33C0FFFFFFFFFD15
:100C00006B5BDB6AFDC0564C35334C30582041508D
:100C1000492053696D706C652052616E67696E671B
:100C2000206578616D706C650A0A004661696C65C3
:100C30006420746F20626F6F7420564C35334C30D3
:100C400058002200FF210000000A0B02090C0D0EC3
:100C5000080703040100000000000000000000007D
:100C60000000000000000000000000000000000084
:100C70000000001211100000000000000000000041
:100C80000000000000000000000000000000002143
:100C900000240027002A002D00300033000101004D
:100CA00000040107010A010000200023002600299A
:100CB000002C002F00320000010000030106010992
:100CC0000100002200250028002B002E00310034F6
:100CD0000002010000050108010B010505050507DB
:100CE0000508080808020202020A0A0808040404A7
:100CF00004010101010101010103030303030303D3
:100D000003040707070C0C0C0C0C0C0C0C02020261
:100D10000206060606060606060B0B0B0B0B0B0B54
:100D20000B010210202008081020401020408002F3
:100D30000102010804020101020408102040808021
:100D400040201008040201800402018040201008A5
:100D5000040201080402010102040810204080017D
:100D600002040810204080001952F66211241FBEB0
:100D7000CFEFD1E2DEBFCDBF00E00CBF1CE0A0E0B2
:100D8000B2E0E0E7F1ED00E00BBF02C007900D928A
:100D9000A839B107D9F723E1A8E9BCE001C01D9249
:100DA000A433B207E1F716E0C5EBD6E000E006C0D9
:100DB00021970109802FFE010E947366C43BD10771
:100DC00080E00807A9F70E94B6530C94A6680C941B
:100DD0000000ECE9FFE0A089B18982E08C93A48552
:100DE000B5851C92A685B7858FEC8C93108EA4894F
:100DF000B58986E08C93A289B3898C9180618C93AC
:100E0000A289B3898C9188608C93A289B3898C91D3
:100E100080688C930288F389E02D80818F7D8083A8
:100E2000089591E09093780F80939A0F1092790F24
:100E300010929B0F089508950895CF93DF9300D0EB
:100E40001F92CDB7DEB719821A821B821C8289815C
:100E50009A81AB81BC818A3F9105A105B10568F4F7
:100E6000000089819A81AB81BC810196A11DB11DD1
:100E700089839A83AB83BC83EACF80E00F900F9085
:100E80000F900F90DF91CF9108954F925F926F92E4
:100E90007F928F929F92AF92BF92CF92DF92EF920A
:100EA000FF920F931F93CF93F9010FEF1FEF98015C
:100EB00000831183228333834A015B01B3E0B6943C
:100EC000A79497948794BA95D1F76A017B0127E09C
:100ED000C222DD24EE24FF2495018401C0E0063007
:100EE00011052105310508F041C0C1113FC0DC01E9
:100EF000A00FB11F6C91412C512C3201801691062C
:100F0000A206B30649F470E00C2C02C075956795F3
:100F10000A94E2F726013701462F50E060FF17C020
:100F2000B901A801A3E0440F551F661F771FAA95BA
:100F3000D1F7440E551E661E771E40825182628292
:100F40007382C1E00F5F1F4F2F4F3F4FC8CFBA01D1
:100F5000759567954FEF441A540A640A740A48E07D
:100F60004416510461047104B9F6ECCFCF911F917E
:100F70000F91FF90EF90DF90CF90BF90AF909F9038
:100F80008F907F906F905F904F9008950895E82F15
:100F9000F0E0DF01AA0FBB1FAB50BD4F11967C9351
:100FA0006E93883008F045C08827E652F84F8F4F7F
:100FB0000C947366FE070508E207E907F007F707D8
:100FC0000C08130880916900836080936900E89A97
:100FD0000895809169008C6080936900E99A089572
:100FE00080916900806380936900EA9A08958091F6
:100FF0006900806C80936900EB9A089580916A0083
:10100000836080936A00EC9A089580916A008C60F6
:1010100080936A00ED9A089580916A0080638093BE
:101020006A00EE9A089580916A00806C80936A004D
:10103000EF9A08958150823108F05AC0E82FF0E00D
:101040008827EA5DF74F8F4F0C94736646084A086D
:1010500038083E08420878084D08530857085D08CC
:10106000610865086B086F087808730879087D08BF
:10107000809180008F778093800008958091800018
:101080008F7DF9CF80918000877FF5CF84B58F77F2
:1010900084BD089584B58F7DFBCF8091B0008F779C
:1010A0008093B00008958091B0008F7DF9CF80913A
:1010B00090008F77809390000895809190008F7DAD
:1010C000F9CF80919000877FF5CF8091A0008F7736
:1010D0008093A00008958091A0008F7DF9CF80912A
:1010E000A000877FF5CF809120018F77809320012A
:1010F0000895809120018F7DF9CF80912001877F15
:10110000F5CFCF93DF93282F30E0F901E95BF34F60
:101110008491F901EF5DF24FD491F901E552F34F5B
:10112000C491CC23A1F081110E941A08EC2FF0E0A9
:10113000EE0FFF1FE955F34FA591B491EC91ED230C
:1011400081E090E009F480E0DF91CF91089580E0A4
:1011500090E0FACF1F93CF93DF93282F30E0F9016F
:10116000E95BF34F8491F901EF5DF24FD491F901FE
:10117000E552F34FC491CC23A9F0162F81110E94A0
:101180001A08EC2FF0E0EE0FFF1FEF53F34FA5917D
:10119000B4918FB7F894EC91111108C0D095DE236B
:1011A000DC938FBFDF91CF911F910895DE2BF8CF95
:1011B000CF93DF9390E0FC01EF5DF24F24918552D5
:1011C000934FFC0184918823C9F090E0880F991F08
:1011D000FC01E357F34FA591B491FC01EF53F34F9A
:1011E000C591D49161110DC09FB7F8948C91209551
:1011F00082238C938881282328839FBFDF91CF91FE
:101200000895623051F49FB7F8943C91822F8095F5
:1012100083238C93E8812E2BEFCF8FB7F894EC913A
:101220002E2B2C938FBFEACF1F93CF93DF93182FD2
:10123000EB0161E00E94D808209739F460E0812F2B
:10124000DF91CF911F910C94AA08CF3FD10511F4E3
:1012500061E0F5CFE12FF0E0E95BF34FE491E1507D
:10126000E23108F0B3C0F0E08827E65CF64F8F4F1C
:101270000C9473664C095409590963096D09E60910
:1012800077097F09870991099B09A509B409BE0956
:10129000E609C809D209DC0984B5806884BDC7BDE8
:1012A000DF91CF911F91089584B5806284BDC8BD40
:1012B000F7CF80918000806880938000D093890070
:1012C000C0938800EDCF8091800080628093800081
:1012D000D0938B00C0938A00E3CF80918000886018
:1012E00080938000D0938D00C0938C00D9CF8091E3
:1012F000B00080688093B000C093B300D1CF8091DC
:10130000B00080628093B000C093B400C9CF8091D8
:101310009000806880939000D0939900C0939800CB
:10132000BFCF80919000806280939000D0939B000B
:10133000C0939A00B5CF8091900088608093900010
:10134000D0939D00C0939C00ABCF8091A00080689B
:101350008093A0008091A0008F7B8093A000D09309
:10136000A900C093A8009CCF8091A00080628093C8
:10137000A000D093AB00C093AA0092CF8091A000B0
:1013800088608093A000D093AD00C093AC0088CF5C
:1013900080912001806880932001D0932901C0931F
:1013A00028017ECF80912001806280932001D0931C
:1013B0002B01C0932A0174CF809120018860809313
:1013C0002001D0932D01C0932C016ACFC038D105E4
:1013D0000CF03ECF33CF863308F0865320917B004C
:1013E000982F9870277F922B90937B008770806452
:1013F00080937C0080917A00806480937A00809151
:101400007A0086FDFCCF8091780090917900089554
:101410003FB7F8948091200F9091210FA091220F57
:10142000B091230F26B5A89B05C02F3F19F0019658
:10143000A11DB11D3FBFBA2FA92F982F8827BC012E
:10144000CD01620F711D811D911D42E0660F771F56
:10145000881F991F4A95D1F708958F929F92AF9256
:10146000BF92CF92DF92EF92FF924B015C010E94FC
:10147000080A6B017C010E94080A6C197D098E091B
:101480009F09683E734081059105A8F321E0821A07
:101490009108A108B10888EEC80E83E0D81EE11CAF
:1014A000F11C81149104A104B10429F7FF90EF907D
:1014B000DF90CF90BF90AF909F908F9008952FB7FF
:1014C000F89460911C0F70911D0F80911E0F9091E8
:1014D0001F0F2FBF089508950895AF92BF92CF9226
:1014E000DF92EF92FF920F931F93CF93DF936C01E4
:1014F0007B018B01040F151FEB015E01AE18BF08C5
:10150000C017D10759F06991D601ED91FC91019076
:10151000F081E02DC6011995892B79F7C501DF917E
:10152000CF911F910F91FF90EF90DF90CF90BF90E0
:10153000AF900895FC01538D448D252F30E0842F0A
:1015400090E0821B930B541710F0CF9608950197EB
:101550000895FC01918D828D981761F0A28DAE0FD8
:10156000BF2FB11D5D968C91928D9F5F9F73928F5F
:1015700090E008958FEF9FEF0895FC01918D828D8B
:10158000981731F0828DE80FF11D858D90E0089558
:101590008FEF9FEF0895FC01918D228D892F90E0B0
:1015A000805C9F4F821B91098F73992708958CE966
:1015B0009FE00E94CB0A21E0892B09F420E0822FD2
:1015C0000895FC01A48DA80FB92FB11DA35ABF4FD8
:1015D0002C91848D90E001968F739927848FA68932
:1015E000B7892C93A089B1898C91837080648C9386
:1015F000938D848D981306C00288F389E02D808135
:101600008F7D80830895EF92FF920F931F93CF9366
:10161000DF93EC0181E0888F9B8D8C8D98131AC02D
:10162000E889F989808185FF15C09FB7F894EE8914
:10163000FF896083E889F989808183708064808371
:101640009FBF81E090E0DF91CF911F910F91FF90BC
:10165000EF900895F62E0B8D10E00F5F1F4F0F7364
:101660001127E02E8C8D8E110CC00FB607FCFACF1F
:10167000E889F989808185FFF5CFCE010E94E10AD2
:10168000F1CFEB8DEC0FFD2FF11DE35AFF4FF082F0
:101690009FB7F8940B8FEA89FB8980818062CFCF56
:1016A000CF93DF93EC01888D8823B9F0AA89BB8999
:1016B000E889F9898C9185FD03C0808186FD0DC084
:1016C0000FB607FCF7CF8C9185FFF2CF808185FFA5
:1016D000EDCFCE010E94E10AE9CFDF91CF910895CD
:1016E00080E090E0892B29F00E94D70A81110E94A6
:1016F000000080E090E0892B49F080E090E0892BA9
:1017000029F00E94000081110E94000080E090E01A
:10171000892B49F080E090E0892B29F00E9400009D
:1017200081110E94000080E090E0892B49F080E068
:1017300090E0892B29F00E94000081110C94000098
:101740000895EF92FF920F931F93CF93DF93EC01D5
:10175000EC80FD806E157F050CF070C057FF04C053
:10176000240F351F50E040E08E819F81FA01E20F87
:10177000F31F8E179F071CF49C01241B350B1216B8
:1017800013060CF05BC0922F842F86958695869564
:101790008E9DD0018F9DB00D11246A0F7B1FAF8DE0
:1017A000B8A1A60FB71F477049F188E0841B482FE6
:1017B000682F70E0FB01E45BF84FE491281708F014
:1017C00063C0621B71092FEF30E002C03595279589
:1017D0006A95E2F7E2230130110539F0B0F10230E9
:1017E000110561F58C91E82702C08C91E82BEC93F0
:1017F000941720F12C813D81A20FB31FE92FE41B28
:10180000E83078F00230110521F58E2F9C919095EB
:101810009C932C813D81A20FB31F88508830B0F774
:10182000E770EE2359F0F0E0EC5BF84FE491013003
:101830001105F9F010F10230110519F1DF91CF9186
:101840001F910F91FF90EF900895E0958C91E82300
:10185000CECF81E00115110509F480E081959E2F1E
:101860008C932C813D81A20FB31F98509830C0F704
:10187000D7CF8C91E82BEC93E1CFE0958C91E823C6
:10188000FACF8C91E827F7CF0130110509F4ADCFDD
:10189000E0F20230110509F4A5CFAE0DBF1DAECFA9
:1018A0000F931F93CF93DF9377FF04C0260F371F4B
:1018B00070E060E0DC011496CD91DC91FB01E20F59
:1018C000F31FCE17DF071CF49E01261B370B1216E1
:1018D00013064CF5FA0157FD3796A3E0F595E79509
:1018E000AA95E1F7EC9FD001ED9FB00DFC9FB00DE4
:1018F00011246A0F7B1FDC015F96ED91FC91E60FCE
:10190000F71F4770552781E090E001C0880F4A9586
:10191000EAF7482F0130110559F0A8F02E0F3F1FAC
:1019200002301105E1F0DF91CF911F910F910895E1
:101930002E0F3F1FE217F307B1F38191DF011197DB
:10194000842B8C93F7CF80952E0F3F1FE217F30760
:1019500051F39191DF01119798239C93F7CFE217F0
:10196000F30709F38191DF01119784278C93F7CF57
:101970000F931F93FA01DC0156964C915697423013
:10198000E9F04330A1F1413061F514964D915C913D
:10199000DA01AE1BBF0BFD01E21BF30B77FD0BC0A1
:1019A000DC0116964D915C916417750724F4AB0128
:1019B000BF010E94500C1F910F91089514964D91F4
:1019C0005C91DA01A61BB70BBD0161507109DC0106
:1019D00016964D915C91DA01AE1BBF0BFD01E21B27
:1019E000F30B77FDE8CFAF010E94A10BE4CF169671
:1019F0004D915C91DA01A61BB70BBD0161507109D5
:101A0000CDCF0F931F93FA01DC0156964C91569758
:101A10004230A9F0433091F1413019F514964D91BF
:101A20005C91DA01AE1BBF0BFD013197F7FD04C0DD
:101A3000AB01BF010E94A10B1F910F910895149655
:101A40004D915C91DA01A61BB70BBD01DC01169626
:101A50004D915C91DA01AE1BBF0BFD013197621B0A
:101A6000730BF7FDE9CFDC0116964D915C91E417FD
:101A7000F50714F7AF010E94500CDECF16964D917A
:101A80005C91DA01A61BB70BBD01621B730BCECFB5
:101A9000FC0177FD64C080859185681779070CF09B
:101AA0005EC057FD5CC082859385481759070CF0CE
:101AB00056C086898230B1F0833029F1813041F4FB
:101AC00084819581841B950BAB01BC016150710928
:101AD0002130310509F108F443C02230310509F401
:101AE00063C0089584819581DC01A61BB70BBD01FD
:101AF0006150710986819781DC01A41BB50BAD0192
:101B000041505109E5CF86819781861B970BBA0119
:101B1000AC0141505109DCCFCA0157FD0796A3E043
:101B200095958795AA95E1F7A481B5818A9F900143
:101B30008B9F300D9A9F300D1124620F731F078CFD
:101B4000F0A1E02DE60FF71F4770552721E030E0A8
:101B500001C0220F4A95EAF78081822B8083089585
:101B6000CA0157FD079633E0959587953A95E1F7B9
:101B7000A481B5818A9F90018B9F300D9A9F300D73
:101B80001124620F731F078CF0A1E02DE60FF71FE1
:101B90004770552781E090E001C0880F4A95EAF729
:101BA000809590818923DACFCA0157FD079623E0FB
:101BB000959587952A95E1F7A481B5818A9F900133
:101BC0008B9F300D9A9F300D1124620F731F078C6D
:101BD000F0A1E02DE60FF71F4770552721E030E018
:101BE00001C0220F4A95EAF780818227B7CF8EBDC8
:101BF00000000DB407FEFDCF8EB508950895FC01D9
:101C00006370668B8481958126813781613039F0DC
:101C1000633029F091878087338722870895318741
:101C200020879387828708952F923F924F925F92E9
:101C30006F927F928F929F92AF92BF92CF92DF92DC
:101C4000EF92FF920F931F93CF93DF93CDB7DEB741
:101C50006A970FB6F894DEBF0FBECDBF9A8F898FFB
:101C60007A8369834A01D22E18870F833701BC2CEF
:101C7000DC0159962D913C915A972115310509F0B7
:101C800015C118968D919C911997681779070CF0DA
:101C9000D7C11A968D919C91481759070CF0D0C165
:101CA0004C2C512CB6E0CB9E600D711D11247C870D
:101CB0006B87161617060CF0C3C1EA2DF0E0FA8701
:101CC000E98793E0EE0FFF1F9A95E1F7F88BEF8716
:101CD000CF01840F951F181619060CF0B1C1A98DFC
:101CE000BA8D58968C91811104C0BFEABD1508F4D5
:101CF000D394A98DBA8DED91FC9111970284F3854F
:101D0000E02DCD011995B5E0DB9EC0011124E981DC
:101D1000FA81FC83EB83312C212C9C012C5B3D4F01
:101D2000388F2F8B4A2D50E05E8B4D8BEF89F88DCD
:101D3000E20DF31D44919E828D82D12CC12C6981CC
:101D40007A81620D731D7A8B698B842F90E09C8B56
:101D50008B8BE98DFA8DA081B18140FF82C0F1E0CB
:101D6000BF126FC0AF126DC01C96ED91FC912F8118
:101D70003885A4014C0D5D1D69897A89898D9A8DFC
:101D80001995EB89FC89F595E7954E2F5FEFC51AFC
:101D9000D50A6D817E818D899E89680F791F7E832A
:101DA0006D8398E0C916D10481F6AFEF2A1A3A0A7A
:101DB000EB81FC81E40DF51DFC83EB83F5E02F1630
:101DC000310409F0B3CF2F81388526153705B9F0D6
:101DD000A98DBA8DED91FC91B1E0BB1257C0AB1249
:101DE00055C069817A816B5F7F4F0088F189E02D52
:101DF000830128E030E0A401898D9A8D1995A98D81
:101E0000BA8DED91FC9111970688F789E02DCD01EF
:101E10006A960FB6F894DEBF0FBECDBFDF91CF91AB
:101E20001F910F91FF90EF90DF90CF90BF90AF90F8
:101E30009F908F907F906F905F904F903F902F90EA
:101E400019941E96ED91FC91EF80F88409851A850E
:101E500092014D815E816B817C81898D9A8D19956E
:101E600090CF2F8138852615370509F48ACF31E0C8
:101E7000B31207C0A31205C01C96ED91FC9193010B
:101E800078CF1E96ED91FC917301E0CF6B857C8538
:101E9000641975090684F785E02D73010F8518898B
:101EA0009201A401898D9A8D1995A9CFF9013496D3
:101EB0009491329745915491D91AB7E0DB9E400D29
:101EC000511D1124F901259134913C8B2B8BFA0182
:101ED00025903490FA013296749031963491398B72
:101EE000329664903196449041E04C1518F04A15B2
:101EF00008F07FC0662D062C000C770B7C836B836B
:101F0000842D042C000C990B9E838D83A98DBA8D92
:101F1000ED91FC9111970284F385E02DCD01199587
:101F2000512CD12CC12CEA2DF0E0FA87E9872B2D1A
:101F300030E03C872B87A401440D511D47FC5A9586
:101F4000588F4F8B69817A81660D711D67FC7A9578
:101F50007E876D877989C71608F051CF2C2D30E028
:101F60004D815E81420F531FA985BA854A9FC001EA
:101F70004B9F900D5A9F900D1124FC01E80DF91D07
:101F8000F88BEF87852D612C4F89588D420F531F99
:101F90005E8B4D8B671408F050C044244394480E68
:101FA000877041F4C1010196EB89FC89E20DF31DB4
:101FB000D4901C01D7FE19C0A98DBA8DED91FC916A
:101FC000662D70E0B1E0BB1219C0AB1217C02D85B1
:101FD0003E85620F731F0484F585E02D2F813885BF
:101FE0004D895E89898D9A8D1995DD0C6394842DB8
:101FF000D1CF1E821D821C821B8288CF4B815C81C7
:10200000640F751FAB85BC856A9FC0016B9F900DE7
:102010007A9F900D112469817A81680F791F068457
:10202000F785E02DEF80F88409851A859D014F859D
:102030005889898D9A8D1995D8CF570CC3948ACF1A
:102040006A960FB6F894DEBF0FBECDBFDF91CF9179
:102050001F910F91FF90EF90DF90CF90BF90AF90C6
:102060009F908F907F906F905F904F903F902F90B8
:1020700008958F929F92AF92CF92EF92FF920F931B
:102080001F93CF93DF93EC01262F898D9A8D0097B4
:1020900009F051C06A30D1F41D861C868D8948E054
:1020A000849F900111248E859F85820F931F9F87A7
:1020B0008E8781E090E0DF91CF911F910F91FF908B
:1020C000EF90CF90AF909F908F9008956D3089F3EF
:1020D000CC88AD888F898823C1F08C859D8536E0BA
:1020E000C39E800D911D11244885598548175907B5
:1020F00064F44E855F851D861C8638E0A39EC00172
:102100001124840F951F9F878E87EA88FB88088992
:1021100019894E855F856C857D85CE010E94140EE0
:102120002C898C859D8546E0249F800D911D11246E
:102130009D878C87BECF6A3069F41D861C86FC01A2
:102140003896E4912D898E859F85E29F800D911DA3
:102150001124ADCF6D3009F4ACCFFC01349634912D
:10216000631708F4A6CF3296E491E61708F4A1CFDE
:10217000FC01329685909490462F431B342F47E004
:10218000349F800C911C1124F401329634913196C5
:10219000E4913323A9F1EE2399F1CC88F40135962B
:1021A000E491AD884F89442301F10E2E000CFF0B02
:1021B000E30FF11DCE9EA001CF9E500D11246C8522
:1021C0007D85460F571F68857985641775076CF400
:1021D0004E855F851D861C86FC013896E491AE9E77
:1021E000400D511D11245F874E87EA88FB880889BE
:1021F00019894E855F856C857D85CE010E94140E00
:10220000F4013496E4912C898C859D85E29F800DA4
:10221000911D11248DCF6F927F928F929F92AF92DA
:10222000BF92CF92DF92EF92FF920F931F93CF93C3
:10223000DF93EC016B015A0139014801E881F98112
:102240000284F385E02D1995E881F9810288F389EC
:10225000E02D87019301A501B601CE011995A501D5
:10226000480D591D41505109E881F9810288F389CF
:10227000E02D9301B601CE011995E881F98100881E
:10228000F189E02D9401A501B601CE011995C60C86
:10229000D71CB60161507109E881F9810088F18984
:1022A000E02D9401A501CE011995E881F9810688F8
:1022B000F789E02DCE01DF91CF911F910F91FF9013
:1022C000EF90DF90CF90BF90AF909F908F907F90D6
:1022D0006F9019946F927F928F929F92AF92BF925C
:1022E000CF92DF92EF92FF920F931F93CF93DF93E2
:1022F0005C01EB016A01490138018701DC01ED91C4
:10230000FC916217730719F5641675062CF0962D6B
:10231000872D3A01C92ED82E9601261937092F5F2D
:102320003F4F048CF58DE02DA301BE01C501199529
:10233000DF91CF911F910F91FF90EF90DF90CF90A1
:10234000BF90AF909F908F907F906F9008954615AB
:10235000570591F42617370724F0892D4B01C22F1A
:10236000D82F9E01281939092F5F3F4F068CF78D12
:10237000E02DA601B401DACF0284F385E02D199592
:10238000D501ED91FC910488F589E02D830194013C
:10239000A601BE01C5011995D501ED91FC910688F4
:1023A000F789E02DC501DF91CF911F910F91FF902B
:1023B000EF90DF90CF90BF90AF909F908F907F90E5
:1023C0006F901994EF92FF920F931F93DC011A966E
:1023D0000D911C911B9718962D913C911997ED9199
:1023E000FC9100A0F1A1E02D7B0150E040E070E005
:1023F00060E019951F910F91FF90EF9008954F9213
:102400005F926F927F928F929F92AF92BF92CF9284
:10241000DF92EF92FF920F931F93CF93DF936C01A4
:102420002B015A0139014801DC01ED91FC91028434
:10243000F385E02D1995E201640C751CD601ED9130
:10244000FC91C615D7055CF40088F189E02D870161
:102450009401A501BE01C60119952196EFCF06880A
:10246000F789E02DC601DF91CF911F910F91FF9069
:10247000EF90DF90CF90BF90AF909F908F907F9024
:102480006F905F904F9019948F929F92AF92BF92EE
:10249000CF92DF92EF92FF920F931F93CF93DF9330
:1024A000EC015B014A016901E881F9810284F3854D
:1024B000E02D199595012C0D3D1D21503109E88124
:1024C000F9810488F589E02D78018401A401B50122
:1024D000CE011995E881F9810688F789E02DCE01B2
:1024E000DF91CF911F910F91FF90EF90DF90CF90F0
:1024F000BF90AF909F908F9019948F929F92AF92C0
:10250000BF92CF92DF92EF92FF920F931F93CF93E0
:10251000DF93EC015B014A0169017801E881F981EF
:102520000284F385E02D1995C80CD91C8601015051
:102530001109E881F9810488F589E02D9501A4014C
:10254000B501CE011995E881F9810688F789E02D5A
:10255000CE01DF91CF911F910F91FF90EF90DF900F
:10256000CF90BF90AF909F908F901994EF92FF9271
:102570000F931F93DC01ED91FC9100A0F1A1E02DE0
:1025800019951F910F91FF90EF9008950F931F934E
:10259000DC01ED91FC91068CF78DE02D19951F91D2
:1025A0000F9108950F931F93DC01ED91FC91048C22
:1025B000F58DE02D19951F910F910895DC01ED9196
:1025C000FC910084F185E02D19943F924F925F9227
:1025D0006F927F928F929F92AF92BF92CF92DF9233
:1025E000EF92FF920F931F93CF93DF935C017B01D8
:1025F0004A016901390187E0680E711C93E0759406
:1026000067949A95E1F72B01400E511E10E000E00F
:10261000312CD0E0C0E0CE0187709927330C892B94
:1026200059F4FE0183E0F595E7958A95E1F7E00F0F
:10263000F11FE80DF91D349037FE0AC021E030E0AB
:10264000A701B5016C0F7D1F82ED92E10E94DE12A1
:102650002196CC16DD06F9F68FEFE81AF80A060D7A
:10266000171DE414F504A9F6DF91CF911F910F9186
:10267000FF90EF90DF90CF90BF90AF909F908F90A2
:102680007F906F905F904F903F9008952F923F9270
:102690004F925F926F927F928F929F92AF92BF9272
:1026A000CF92DF92EF92FF920F931F93CF93DF931E
:1026B00000D000D0CDB7DEB73C016A013E832D8348
:1026C000FC82EB825801A41AB50AB7FE03C0B1948C
:1026D000A194B1088D809E80861A970A97FE03C048
:1026E0009194819491088A149B045CF0902F812F1F
:1026F0000D811E819D838E839C2D8D2D6B01692FF5
:10270000782F0C151D055CF09D818E817E836D8375
:10271000692F782F902F812F8601C92ED82E160170
:10272000201A310A2B012D813E81421A530A57FE8D
:1027300003C0519441945108710137FE03C03FEF2B
:10274000E31AF30AF594E7948D819E818617970723
:102750005CF5A1E0B0E0BA83A983C016D1064CF1C4
:10276000D301ED91FC910484F585E02D2B813C8112
:10277000A8016D817E818A149B041CF04D815E81CD
:10278000B801C3011995E418F508F7FE0AC02D81B8
:102790003E8189819A81280F391F3E832D83E20C67
:1027A000F31C0F5F1F4FD9CF2FEF3FEF3A832983E1
:1027B000D4CF26960FB6F894DEBF0FBECDBFDF9103
:1027C000CF911F910F91FF90EF90DF90CF90BF902E
:1027D000AF909F908F907F906F905F904F903F90C1
:1027E0002F9008958F929F92AF92BF92FF920F9376
:1027F0001F93CF93DF93FC01F0808FE28F1508F4D5
:102800004AC0828108E512E0081B110987FD139573
:10281000000F111F000F111F8181C8E8D0E0C81BF5
:10282000D10987FDD395CC0FDD1FCC0FDD1F4E01E5
:102830000D2E000CAA08BB089801012E000C440BB9
:10284000550B281939094A095B09DB010E947C6490
:1028500024EB30E040E050E00E945264820E931E70
:10286000A41EB51E8C169D062CF0E801801691065C
:102870000CF4E4012297CC0FDD1F2FB7F8948F2DB5
:1028800090E0FC01EE0FFF1FE80FF91FE85AFF4E22
:10289000D283C1832FBFDF91CF911F910F91FF9002
:1028A000BF90AF909F908F9008958130910581F4F3
:1028B0001092800082E08093810010928500109237
:1028C0008400B19A80916F00826080936F000895B8
:1028D0008230910569F41092900082E0809391001B
:1028E000109295001092940088BB80937100089517
:1028F0008330910569F41092A00082E08093A100DA
:102900001092A5001092A40089BB809372000895D4
:10291000892B61F41092200182E0809321011092B2
:102920002501109224018ABB809373000895AF9211
:10293000BF92CF92DF92EF92FF920F931F93CF93AC
:10294000DF936B017A01EC01C854D14F28813CE040
:10295000389F8001399F100D1124A090E810B12CF0
:1029600027FF1FC0FB011182108288818F5F88833F
:1029700088819801280F311D87FD3A95F6012A15A7
:102980003B051CF488818C30C4F1808191810496D0
:1029900080349C4908F473C0F601808191810496CB
:1029A00070C088819801280F311D87FD3A952A153E
:1029B0003B05DCF68881A801480F511D87FD5A951B
:1029C000FA01EE0FFF1FE40FF51FE85AFF4E80815A
:1029D00086FFCBCF8881F801E80FF11D87FDFA95BE
:1029E000CF01EE0FFF1FE80FF91FE85AFF4E80815D
:1029F00060E08F730E94AA08B8CF808191812881FE
:102A0000A801420F511D27FD5A959A01FA01EE0FB8
:102A1000FF1FE20FF31FE85AFF4E21813281820F20
:102A2000931FF7019183808388819801280F311DBE
:102A300087FD3A95F901EE0FFF1FE20FF31FE85AE9
:102A4000FF4E808186FF22C08881080F111D87FDFF
:102A50001A95F801EE0FFF1FE00FF11FE85AFF4E25
:102A6000808161E08F73DF91CF911F910F91FF9073
:102A7000EF90DF90CF90BF90AF900C94AA0880E4C5
:102A80009CE9F701918380838FEF8883DF91CF9159
:102A90001F910F91FF90EF90DF90CF90BF90AF907C
:102AA000089508958CBD9DBD08952091950E260F23
:102AB0003327331F21323105ECF42091720FFC01D2
:102AC00090E080E0243069F082E00895A091950EB6
:102AD0002191AC014B58514FA40FB52FB11D2C9330
:102AE0000196861798F38091950E680F6093950E66
:102AF00080E0089581E008951092720F81E0809344
:102B0000710F10924C0F61E084E10E94AA0861E00D
:102B100085E10E94AA08E9EBF0E080818E7F808346
:102B200080818D7F808388E48093B80085E48093E2
:102B3000BC00089510922B0F10922A0F1092790F5B
:102B400010929B0F0E947C158BE197E09093290FC8
:102B50008093280F8CE197E09093270F8093260FA6
:102B60000895CF93DF9391E09093740E8823B9F08A
:102B7000C091B800D091BA008091BC008A7B80934C
:102B8000BC0060E084E10E94AA0860E085E10E9448
:102B9000AA080E947C15D093BA00C093B800DF91B8
:102BA000CF9108958F929F92AF92BF92CF92DF9272
:102BB000EF92FF920F931F93CF93DF93D0919B0FD0
:102BC000D13208F0D7C0182FC0919A0F0E94080A7E
:102BD0006B017C018091720F81116BC082E0809348
:102BE000720F1093710F8FEF8093700F10926F0F11
:102BF000D0936E0FAAE7BFE0EEE4FFE080E0D813C9
:102C000091C010924D0F80914D0FCC0FC82BC093E7
:102C10004D0F80914C0F813009F088C010924C0FFD
:102C20000E94080A6B017C0180914D0F8093BB00CC
:102C30008091740F9091750FA091760FB091770FDE
:102C4000892B8A2B8B2BA1F00E94080A0091740F0C
:102C50001091750F2091760F3091770F6C197D09C7
:102C60008E099F09061717072807390708F442C07D
:102C70008091BC0083FDD8CF85EC8093BC000E947E
:102C8000080A6B017C018091720F823009F450C0F8
:102C90008091700F8F3F09F46FC08091700F803268
:102CA00009F46CC08091700F803309F469C084E02E
:102CB00026C08091740F9091750FA091760FB091FE
:102CC000770F892B8A2B8B2B09F484CF0E94080A5B
:102CD0008090740F9090750FA090760FB090770F42
:102CE0006C197D098E099F0986169706A806B906F4
:102CF00008F070CF8091730F0E94B11585E010929B
:102D0000790F10929B0F1092780FDF91CF911F9146
:102D10000F91FF90EF90DF90CF90BF90AF909F907A
:102D20008F9008959D9191938F5F69CF85EEA5CF88
:102D30008091740F9091750FA091760FB091770FDD
:102D4000892B8A2B8B2B09F49ECF0E94080A0091B5
:102D5000740F1091750F2091760F3091770F6C19C9
:102D60007D098E099F09061717072807390708F0FC
:102D70008ACFC0CF81E0C3CF80E0C1CF82E0BFCF98
:102D800083E0BDCF1F93CF93DF93EA01122FDC01C5
:102D900011968D919C91DC01ED91FC910280F38163
:102DA000E02D1995C817D90729F4812F0E94D21553
:102DB00091E0811190E0892FDF91CF911F910895CB
:102DC0008F929F92AF92BF92CF92DF92EF92FF923B
:102DD0000F931F93CF93DF93D82FC62F142F6132F9
:102DE00008F09CC00E94080A6B017C018091720F60
:102DF00081116FC081E08093720F1093710F9FEF6C
:102E00009093700F10926F0F9C0F90936E0F8093A2
:102E10004D0F80914D0FDD0FD82BD0934D0F80912A
:102E20004C0F813009F07CC010924C0F0E94080AB0
:102E30006B017C0180914D0F8093BB008091740FDA
:102E40009091750FA091760FB091770F892B8A2BF7
:102E50008B2BA1F00E94080A0091740F1091750F3E
:102E60002091760F3091770F6C197D098E099F099B
:102E7000061717072807390708F44CC08091BC00D3
:102E800083FDD8CF85EC8093BC000E94080A6B01BB
:102E90007C018091720F813009F444C080916F0FE2
:102EA0008C1710F4C0916F0FEEE4FFE0ACE2BFE0CE
:102EB00080E08C1359C08C2FDF91CF911F910F911F
:102EC000FF90EF90DF90CF90BF90AF909F908F904A
:102ED00008958091740F9091750FA091760FB09125
:102EE000770F892B8A2B8B2B09F480CF0E94080A3D
:102EF0008090740F9090750FA090760FB090770F20
:102F00006C197D098E099F0986169706A806B906D1
:102F100008F06CCF8091730F0E94B115C0E0CBCF49
:102F200085EEB1CF8091740F9091750FA091760FBF
:102F3000B091770F892B8A2B8B2B09F4AACF0E9493
:102F4000080A0091740F1091750F2091760F30913F
:102F5000770F6C197D098E099F0906171707280737
:102F6000390708F096CFD6CF91919D938F5FA1CF6F
:102F7000E0912B0F80912A0FE81730F4F0E0E45D28
:102F8000F04F808190E008958FEF9FEF089590912A
:102F90002B0F80912A0F2FEF3FEF981748F4E92F5E
:102FA000F0E0E45DF04F208130E09F5F90932B0FC5
:102FB000C901089580912A0F90912B0F891B990BBD
:102FC0000895CF92DF92EF92FF920F931F93CF93CA
:102FD000DF937C01CB018A012091780F222389F0B5
:102FE000EB016B01C40ED51ECC15DD0569F06991AE
:102FF000D701ED91FC910190F081E02DC701199569
:10300000F3CF642F0E945515C801DF91CF911F9116
:103010000F91FF90EF90DF90CF900895CF93DF93C3
:103020001F92CDB7DEB769832091780F2223F9F084
:1030300020919B0F203258F021E030E0FC013383D7
:10304000228390E080E00F90DF91CF9108958091EE
:10305000790FE82FF0E0E658F04F998190838F5F69
:103060008093790F80939B0F81E090E0ECCF61E03B
:10307000CE0101960E945515F7CF81E00C94D21530
:10308000FF920F931F93CF93DF93F62E8A01E901EE
:10309000209711F4CFEED0E10E941107E881F98169
:1030A0000190F081E02D6F2DCE011995E881F98115
:1030B0000190F081E02DD8016C91CE011995CE01DF
:1030C0000E943D1891E0811190E0892FDF91CF910E
:1030D0001F910F91FF900895FF920F931F93CF932D
:1030E000DF93F62E8A01E901209711F4CFEED0E1AB
:1030F0000E941107E881F9810190F081E02D6F2D88
:10310000CE011995D80111966C91E881F981019051
:10311000F081E02DCE011995E881F9810190F081CF
:10312000E02DD8016C91CE011995CE010E943D1879
:1031300091E0811190E0892FDF91CF911F910F9144
:10314000FF900895EF92FF920F931F93CF937C010E
:10315000C62F8091EF129091F012892B09F44EC086
:103160008091F3120E9411078091EF129091F0125A
:10317000DC01ED91FC910190F081E02D60E019956A
:103180008701EE24E394F12CC1508091EF129091CD
:10319000F012CF3F61F1B0E2EB16F104A8F00E940B
:1031A0003D188091F3120E9411078091EF129091C7
:1031B000F012DC01ED91FC910190F081E02D60E0D6
:1031C0001995EE24E394F12C8091EF129091F01276
:1031D000F8016491DC01ED91FC910190F081E02D0A
:1031E0001995BFEFEB1AFB0A0F5F1F4FCDCFCF91A1
:1031F0001F910F91FF90EF900C943D18E091FF12FA
:10320000F09100139081809105138095892380832C
:103210008701C15008F438C0F80184912091ED1263
:103220003091EE12232B29F00E94F70D0F5F1F4FF4
:10323000F0CF28E030E040E8E091FB12F091FC1282
:1032400090910313582F5423D9F05081952B9083DC
:10325000E091FD12F091FE12908150910413952B94
:103260009083E091FD12F091FE1250819091041331
:10327000909595239083469521503109E9F6D6CF54
:10328000508190959523E3CFCF911F910F91FF909F
:10329000EF9008951F93CF93DF93EC018D8D9E8D5A
:1032A000892BF9F0162F89A10E9411078D8D9E8D13
:1032B000DC01ED91FC910190F081E02D60E0199529
:1032C0008D8D9E8DDC01ED91FC910190F081E02DC2
:1032D000612F19958D8D9E8DDF91CF911F910C944B
:1032E0003D18ADA5BEA59C918BA9809589238C9393
:1032F0008B8D9C8D892B31F0862FDF91CF911F9183
:103300000C94F70D28E030E080E8A9A5BAA599A9AA
:10331000462F4823C1F04C91942B9C93ABA5BCA5A0
:103320009C914AA9942B9C93ABA5BCA54C919AA9BE
:10333000909594239C9386952150310931F7DF9124
:10334000CF911F9108954C9190959423E6CF1F93B0
:10335000CF93DF93EC01162F8D8D9E8D892BB1F1CC
:103360002DA93EA94FA958AD60E074E284EF90E02A
:103370000E948464205131094109510956954795AD
:10338000379527952093B80066EA111167EACE01B8
:103390000E944A198D8D9E8D892B41F129AD3AAD40
:1033A0004BAD5CAD60E074E284EF90E00E94846419
:1033B000205131094109510956954795379527956F
:1033C0002093B800DF91CF911F9108958B8D9C8D34
:1033D000892B21F08EAD9FAD0E945215EFA5F8A963
:1033E00090818CA9809589238083CECFEFA5F8A901
:1033F00080819CA9892B8083E5CF7F928F929F92B9
:10340000AF92BF92CF92DF92EF92FF920F931F93F2
:10341000CF93DF93762E6A014801E7010E941107DE
:10342000E881F9810190F081E02D672DC7011995A0
:103430008C0C9D1CC814D90459F0E881F9810190C5
:10344000F081E02DD6016D916D01CE011995F2CF7D
:10345000CE010E943D1890E080E0DF91CF911F9156
:103460000F91FF90EF90DF90CF90BF90AF909F9023
:103470008F907F900895EF92FF920F931F93CF93B9
:10348000DF931F921F92CDB7DEB7FC01EF5BFE4FBB
:1034900070813496E080F1804A83598302E010E025
:1034A00020E030E0AE014F5F5F4F872F0E94FD1993
:1034B000892B51F08CEE0F900F90DF91CF911F91DF
:1034C0000F91FF90EF90089580E0F5CFEF92FF927B
:1034D0000F931F93CF93DF931F92CDB7DEB7FC01FD
:1034E000EF5BFE4F70813496E080F180498301E00C
:1034F00010E020E030E0AE014F5F5F4F872F0E9469
:10350000FD19892B49F08CEE0F90DF91CF911F911F
:103510000F91FF90EF90089580E0F6CFEF92FF9229
:103520000F931F93AB01FC01EB5BFE4FE080F1803A
:103530008F5B9E4F06E010E020E030E060EBFC0186
:1035400080810E94FD19892B31F08CEE1F910F9123
:10355000FF90EF90089580E0F9CFCF93DF93EC01D7
:103560008B81882371F088810E94110789819A815B
:103570000E943D1891E0811190E0892FDF91CF9159
:1035800008950E949A1581E08B83CE010E94AD1AA6
:10359000982F8111E8CFF1CF90E080E00895CF938C
:1035A000C82F80E70E94110761E070E001C0660F3C
:1035B000CA95EAF78FEE90E10E940E188FEE90E127
:1035C000CF910C943D18883010F40C94CF1A0895C4
:1035D000CF93DF93CDE2D0E0BE018CEE90E10E946C
:1035E000F2136FE070E080E090E00E942D0A2196D7
:1035F000CD33D10589F764EF71E080E090E0DF9191
:10360000CF910C942D0ACF93DF93CCE3D0E0BE0191
:103610008CEE90E10E94F2136FE070E080E090E0A9
:103620000E942D0A2197CC32D10589F764EF71E011
:1036300080E090E0DF91CF910C942D0ACF93DF933F
:10364000C2E3D0E0BE0189EE90E10E94F2136FE088
:1036500070E080E090E00E942D0A2196CF36D105DF
:1036600089F768EE73E080E090E0DF91CF910C94F1
:103670002D0ACF93DF93CCE3D0E0BE018CEE90E136
:103680000E94F2136FE070E080E090E00E942D0A4B
:103690002196C739D10589F764EF71E080E090E0A9
:1036A000DF91CF910C942D0ACF93DF93CEE6D0E03B
:1036B000BE0189EE90E10E94F2136FE070E080E0BD
:1036C00090E00E942D0A2197C133D10589F764EF5C
:1036D00071E080E090E0DF91CF910C942D0ACF93C0
:1036E000DF93C6E9D0E0BE018CEE90E10E94F213B8
:1036F0006FE070E080E090E00E942D0A2197CB33CC
:10370000D10589F764EF71E080E090E0DF91CF911F
:103710000C942D0ACF92DF92EF92FF926091BE0C33
:103720007091BF0C8091C00C9091C10C9B01AC01B9
:103730000E94B6646B017C01AC019B0160E070E00B
:1037400088E492E40E94B5640E9494656F3F71051D
:1037500019F014F06FEF70E077FF02C070E060E0E6
:1037600089E00E94140920E030E048E452E4C701F7
:10377000B6010E94B6640E9494656F3F710519F00E
:1037800014F06FEF70E077FF02C070E060E0615FFF
:103790007F4F88E00E94140960E08AE10E94AA0835
:1037A00061E08CE10E94AA0860E086E10E94AA081C
:1037B00061E088E1FF90EF90DF90CF900C94AA0831
:1037C00060E08AE10E94AA0860E08CE10E94AA08F9
:1037D00060E086E10E94AA0860E088E10C94AA08F3
:1037E00061E08AE10E94AA0861E08CE10E94AA08D7
:1037F00061E086E10E94AA0861E088E10C94AA08D1
:1038000061E08AE10E94AA0860E08CE10E94AA08B7
:1038100060E086E10E94AA0861E088E10C94AA08B1
:1038200060E08AE10E94AA0861E08CE10E94AA0897
:1038300061E086E10E94AA0860E088E10C94AA0891
:1038400061E08AE10E94AA0860E08CE10E94AA0877
:1038500061E086E10E94AA0860E088E10C94AA0871
:10386000CF92DF92EF92FF92C090BE0CD090BF0C2F
:10387000E090C00CF090C10C20E030E048E452E44D
:10388000C701B6010E94B6640E9494656F3F71053E
:1038900019F014F06FEF70E077FF02C070E060E0A5
:1038A00089E00E941409A701960160E070E088E4B5
:1038B00092E40E94B5640E9494656F3F710519F00F
:1038C00014F06FEF70E077FF02C070E060E0605EC0
:1038D0007F4F88E00E941409FF90EF90DF90CF9017
:1038E0000C94201C82E00E9481082091B80C309139
:1038F000B90C181619063CF42F5F3F4F3093B90CE2
:103900002093B80C089521503109F8CF82E10E942C
:1039100081082091C40C3091C50C181619063CF48E
:10392000215031093093C50C2093C40C08952F5FAA
:103930003F4FF8CFEF92FF920F93CF937C01842FEC
:10394000C22F0E94140961E081E0E816F10479F0C9
:1039500060E0EF20E09459F48C2F0E94AA0861E007
:10396000802FCF910F91FF90EF900C94AA088C2F8D
:103970000E94AA0860E0F4CF4F925F926F927F920C
:103980008F929F92AF92BF92CF92DF92EF92FF926F
:103990000F931F93CF93DF93EC012A013B010E9409
:1039A000080A4B015C018091B40C9091B50CA09178
:1039B000B60CB091B70CA5019401281B390B4A0B2A
:1039C0005B0BCA01B9010E941F6320E034E244E7A7
:1039D00059E40E9422656B017C018092B40C9092A4
:1039E000B50CA092B60CB092B70CBE01DD0F880BDF
:1039F000990B0E941F634B015C0120E030E04BE11A
:103A000055ECC301B2010E947E639B01AC01C5016C
:103A1000B4010E94B5640E949465072E000C880BC7
:103A2000990B0E941F634B015C012091B00C3091F7
:103A3000B10C4091B20C5091B30C0E94B564A70137
:103A400096010E9422652B013C01A7019601C50148
:103A5000B4010E947E632091AC0C3091AD0C40917A
:103A6000AE0C5091AF0C0E94B6646B017C01C09209
:103A7000AC0CD092AD0CE092AE0CF092AF0C2DECF1
:103A80003CEC4CEC5CE3C301B2010E947E63A501F7
:103A900094010E94B6642B013C0120E030E0A901B2
:103AA000C701B6010E947E639B01AC01C301B20154
:103AB0000E94B6642B013C017C016B01E894F7F88D
:103AC00020E030E046E153E4C701B6010E94CA6538
:103AD00018160CF443C020E030E048EC52E4C70173
:103AE000B6010E94186387FF06C0C12CD12C98EC48
:103AF000E92E92E4F92E20E030E0A901C301B201E1
:103B00000E941863CFEFDFEF87FD02C0C1E0D0E075
:103B1000C701B6010E9494650CE110E02AE130E093
:103B200049E050E0CE010E949A1C8092B00C909225
:103B3000B10CA092B20CB092B30CDF91CF911F9157
:103B40000F91FF90EF90DF90CF90BF90AF909F903C
:103B50008F907F906F905F904F900895C12CD12CE3
:103B60008BE6E82E83E4F82EC6CF4F925F926F92D9
:103B70007F928F929F92AF92BF92CF92DF92EF92FD
:103B8000FF920F931F93CF93DF93EC012A013B0128
:103B90000E94080A4B015C018091B40C9091B50C15
:103BA000A091B60CB091B70CA5019401281B390B5C
:103BB0004A0B5B0BCA01B9010E941F6320E034E28B
:103BC00044E759E40E9422656B017C018092B40CA9
:103BD0009092B50CA092B60CB092B70CBE01DD0F5E
:103BE000880B990B0E941F634B015C0120E030E0C1
:103BF0004BE155ECC301B2010E947E639B01AC0115
:103C0000C501B4010E94B5640E949465072E000CA2
:103C1000880B990B0E941F634B015C012091B00C33
:103C20003091B10C4091B20C5091B30C0E94B5642C
:103C3000A70196010E9422652B013C01A701960174
:103C4000C501B4010E947E632091A80C3091A90C9B
:103C50004091AA0C5091AB0C0E94B6646B017C01A0
:103C6000C092A80CD092A90CE092AA0CF092AB0CD6
:103C70002DEC3CEC4CEC5CE3C301B2010E947E6392
:103C8000A50194010E94B6642B013C0120E030E0C4
:103C9000A901C701B6010E947E639B01AC01C3016B
:103CA000B2010E94B6642B013C017C016B01E894D7
:103CB000F7F820E030E046E153E4C701B6010E9486
:103CC000CA6518160CF443C020E030E048EC52E41A
:103CD000C701B6010E94186387FF06C0C12CD12C12
:103CE0009AEFE92E92E4F92E20E030E0A901C30119
:103CF000B2010E941863CFEFDFEF87FD02C0C1E081
:103D0000D0E0C701B6010E94946508E110E026E109
:103D100030E048E050E0CE010E949A1C8092B00C46
:103D20009092B10CA092B20CB092B30CDF91CF91F3
:103D30001F910F91FF90EF90DF90CF90BF90AF90C9
:103D40009F908F907F906F905F904F900895C12CBF
:103D5000D12C8FE7E82E83E4F82EC6CF4F925F92E6
:103D60006F927F928F929F92AF92BF92CF92DF928B
:103D7000EF92FF92CF93DF9300D01F92CDB7DEB7C3
:103D80008090C60C9090C70CA090C80CB090C90C45
:103D900020E030E048EC52E4C501B4010E94186311
:103DA00087FF7CC02091A00C3091A10C4091A20C07
:103DB0005091A30C6091A40C7091A50C8091A60C5D
:103DC0009091A70C0E94B6646B017C01C092A40C78
:103DD000D092A50CE092A60CF092A70C20919C0C1E
:103DE00030919D0C40919E0C50919F0CC501B401E7
:103DF0000E94B56420E030E0A9010E947E636983DF
:103E00007A838B839C8320E030E040E151E4C5015C
:103E1000B4010E947E632B013C0120E030E040E0D1
:103E200051E4C701B6010E947E639B01AC01C3014E
:103E3000B2010E94B6649B01AC0169817A818B81D9
:103E40009C810E94B6646093BE0C7093BF0C8093FB
:103E5000C00C9093C10CC092A00CD092A10CE09227
:103E6000A20CF092A30C80929C0C90929D0CA092BC
:103E70009E0CB0929F0C0F900F900F900F90DF91BF
:103E8000CF91FF90EF90DF90CF90BF90AF909F9039
:103E90008F907F906F905F904F9008951092BE0C1E
:103EA0001092BF0C1092C00C1092C10CE4CFFC0118
:103EB00080819181009711F00C94176708950F93FA
:103EC0001F93CF93DF931F921F92CDB7DEB7806809
:103ED00089836A830091391010913A10F801848126
:103EE0009581029760F080810E94110721E042E0F5
:103EF00050E0BE016F5F7F4FC8010E94C2160F9055
:103F00000F90DF91CF911F910F910895862F642F0D
:103F1000413208F060E241E00E94E01610922B0F5F
:103F200080932A0F08953F924F925F926F927F92F3
:103F30008F929F92AF92BF92CF92DF92EF92FF92B9
:103F40000F931F93CF93DF93B82EA62E6A017901AA
:103F5000E8010E945F0A2B013C01209711F4CFEE8B
:103F6000D0E18B2D0E941107E881F9810190F08149
:103F7000E02D6A2DCE011995CE010E943D1842E038
:103F80006B2DCE010E94861F01E010E04701B12C8D
:103F9000A12C33243394E881F9810084F185E02D4C
:103FA000CE011995892BE9F111113BC0E114F104FF
:103FB000C9F4E881F9810284F385E02D01110CC078
:103FC000CE011995F60120813181822B932B9183AB
:103FD000808311E00325DFCFCE011995F601108211
:103FE0008183F8CF0E945F0A6419750986099709D1
:103FF000681579058A059B05E0F20E945F0AAB010E
:10400000BC014419550966097709C701B0E0A0E071
:10401000481759076A077B0738F0111105C01FEFD1
:1040200003C0E114F10449F7812FDF91CF911F9173
:104030000F91FF90EF90DF90CF90BF90AF909F9047
:104040008F907F906F905F904F903F9008952F9248
:104050003F924F925F926F927F928F929F92AF9218
:10406000BF92CF92DF92EF92FF920F931F93CF9365
:10407000DF9300D000D01F921F92CDB7DEB78A83A6
:104080006C83C42E3E832D83F886EF820E945F0AE4
:104090004B015C01EF80F884EF2821F48FEE90E172
:1040A00098878F832C2C312C9C2D91959B83C982D2
:1040B000F12CE12CD12C2801712C612CE214F30499
:1040C0000CF04AC08A810E941107AF81B885ED913A
:1040D000FC9111970190F081E02D6C81CD01199533
:1040E0008F8198850E943D1849816A818F819885CA
:1040F0000E94861FAF81B885ED91FC9111970084D5
:10410000F185E02DCD011995892BF9F001151105E7
:1041100089F4AF81B885ED91FC9111970284F38504
:10412000E02DCD011995ED81FE81ED0DF11D80830E
:10413000D394E0CF0E945F0A681979098A099B0924
:10414000641575058605970520F3E20CF31CB9810B
:104150008B81B80FB983B2CF0115110589F00E9488
:104160005F0A681979098A099B0930E020E0601725
:1041700071078207930720F0DC1410F4DD24DA9431
:104180008D2D28960FB6F894DEBF0FBECDBFDF9100
:10419000CF911F910F91FF90EF90DF90CF90BF9044
:1041A000AF909F908F907F906F905F904F903F90D7
:1041B0002F900895EF92FF920F931F93CF93DF9369
:1041C000C9EAD2E1E980FA8008EE13E02CEA32E194
:1041D00042E067E488810E9427208B819C81982798
:1041E00089279827DF91CF911F910F91FF90EF9032
:1041F00008958F929F92AF92BF92CF92DF92EF92EB
:10420000FF920F931F93CF93DF931F921F92CDB70F
:10421000DEB7B82EA62E842E922E6801780108EE05
:1042200013E09E012E5F3F4F41E00E94272021E0D6
:1042300030E001C0220F8A94EAF78A819920D1F0F8
:10424000822B8A8389839601AE014F5F5F4F6A2D6F
:104250008B2D0E9440180F900F90DF91CF911F91EE
:104260000F91FF90EF90DF90CF90BF90AF909F9015
:104270008F90089520958223E4CF2F923F924F9202
:104280005F926F927F928F929F92AF92BF92CF92E6
:10429000DF92EF92FF920F931F93CF93DF93CDB7EF
:1042A000DEB76F970FB6F894DEBF0FBECDBFC82E36
:1042B000282F30E050E040E02150310941095109F8
:1042C000ACEEBFEF0E947F6424E030E040E050E0BD
:1042D0000E94526460E570E080E090E0621B730B26
:1042E000840B950B0E941F632AE037ED43E25CE3E9
:1042F0000E947E634B015C012AE939E949E95EE3EA
:104300000E947E636A8B7B8B8C8B9D8B20E030E0E0
:1043100044EB52E4C501B4010E947E632B013C01D1
:104320006EE38CE99FE00E94030B9E012F5F3F4FDD
:10433000790183E1D82E0091AA121091AB1228EED8
:1043400033E0AE01435F5F4F6D2D8091A9120E9453
:10435000931F6D857E85072E000C880B990B0E949C
:104360001F6320E030E040E850E40E947E63D70104
:104370006D937D938D939D937D01D394D394B9E1F7
:10438000DB12D9CF1F8A1E8AEC2DF0E0FF8FEE8F53
:104390002E8D3F8D8E899F89821793070CF04BC11C
:1043A0001D8E1C8E312C212CDE011196B98BA88B11
:1043B000B3E4BF87C12CD12C76010091AA121091D1
:1043C000AB1228EE33E0AE01435F5F4F6F85809103
:1043D000A9120E94931F6D857E85072E000C880B05
:1043E000990B0E941F634B015C01DC01CB01B058AB
:1043F000888F998FAA8FBB8FC701B6010E941D635A
:104400006B017C0120E030E0A901C501B4010E94EC
:10441000CA65181624F0888C998CAA8CBB8CA501CF
:104420009401C701B6010E94B6640E949B656B01AE
:104430007C012FE632E143E85AE3688D798D8A8D5D
:104440009B8D0E947E63A30192010E947E63A889D6
:10445000B9892D913D914D915C910E94B6644B01BB
:104460005C01E889F98980829182A282B3822A89DB
:104470003B894C895D89688D798D8A8D9B8D0E94E1
:104480007E63A50194010E94B66420E030E040E81C
:104490005EE30E947E634B015C0120E030E0A901F5
:1044A0000E94CA6520E030E040E05FE387FDB9C0CC
:1044B000C501B4010E94B6640E9494657E876D8731
:1044C0002091AA123091AB126F856053AE01435F09
:1044D0005F4F8091A9120E946C18FF85FE5FFF87D5
:1044E000288939892C5F3F4F398B288BF93409F0A3
:1044F00064CF33E62316310471F489EEC81683E0E5
:10450000D806E104F10438F06AE28CE99FE00E94E9
:10451000030B312C212CC701B6010E941D6320E042
:1045200030E040EA50E40E94186387FF05C0AC8D7C
:10453000BD8D1196BD8FAC8FB4E6CB16D104E104CE
:10454000F10448F4EBE02E1631042CF02C8D3D8D57
:104550002A30310574F461E070E080E090E00E9460
:104560002D0A3FEF231A330A84E62816310409F096
:104570001BCF6EE28CE99FE00E94030B20E030E04D
:1045800040E45FE36A897B898C899D890E947E6310
:104590006A8B7B8B8C8B9D8B20E030E040E45FE36B
:1045A000C301B2010E947E632B013C01DE01119622
:1045B0007D0113E1F70161917191819191917F01E9
:1045C00020E030E040E85EE30E947E634B015C0146
:1045D00020E030E0A9010E94CA6520E030E040E020
:1045E0005FE387FD23C0C501B4010E94B6640E9449
:1045F00094657E876D872091AA123091AB12AE012F
:10460000435F5F4F612F8091A9120E946C181E5F5B
:10461000193181F62E893F892F5F3F4F3F8B2E8BBB
:10462000B7CEC501B4010E94B56446CFC501B4013F
:104630000E94B564DCCF0091AA121091AB1221E068
:1046400042E06AE68091A9120E94F9200091AA1224
:104650001091AB1221E043E06AE68091A9120E941A
:10466000F9206F960FB6F894DEBF0FBECDBFDF9175
:10467000CF911F910F91FF90EF90DF90CF90BF905F
:10468000AF909F908F907F906F905F904F903F90F2
:104690002F9008957F928F929F92AF92BF92CF9268
:1046A000DF92EF92FF920F931F93CF93DF931F92AE
:1046B0001F92CDB7DEB7A82E962E742E822EB02E66
:1046C00008EE13E09E012E5F3F4F41E00E9427203D
:1046D0008823C1F1872D8819990BAC014F5F5F4F7B
:1046E00081E090E002C0880F991F8A94E2F7019759
:1046F000042E01C0880F0A94EAF72B2D01C0220F67
:104700004A95EAF7B82EB0949A81B92282238B2970
:104710008A8389839701AE014F5F5F4F692D8A2D90
:104720000E9440180F900F90DF91CF911F910F9131
:10473000FF90EF90DF90CF90BF90AF909F908F90C1
:104740007F90089580E0EECF6F927F928F929F923C
:10475000AF92BF92CF92DF92EF92FF920F931F938F
:10476000CF93DF93782E662E6A014801E7010E94FD
:104770001107E881F9810190F081E02D662DC701D4
:104780001995C7010E943D18402F672DC7010E944F
:10479000861F8C0C9D1CC814D90459F0E881F9813E
:1047A0000284F385E02DCE011995F60181936F0106
:1047B000F2CF90E080E0DF91CF911F910F91FF90B9
:1047C000EF90DF90CF90BF90AF909F908F907F90B1
:1047D0006F9008952F923F924F925F926F927F92C7
:1047E0008F929F92AF92BF92CF92DF92EF92FF9201
:1047F0000F931F93CF93DF93CDB7DEB72F970FB6ED
:10480000F894DEBF0FBECDBF9C878B876D875F8717
:104810004E873901170128012F82388649865A862A
:1048200010E000E0EE24E394F12C0A151B0509F4D6
:1048300061C09E01295F3F4FB201A1018E859F8516
:104840000E9445074F81588569857A854F3F2FEF34
:1048500052076207720709F49CC0DB01CA018C543D
:104860009F4FAF4FBF4FE6E0B695A79597958795B9
:10487000EA95D1F7880F991F880F991F8553994F93
:1048800021E0FC0180819181A281B381892B8A2B57
:104890008B2B09F420E0FD85F2137BC01A012B015C
:1048A00033E056944794379427943A95D1F7DB0137
:1048B000CA0187709927AA27BB2726E02216310450
:1048C0004104510468F4F301E20DF31D970102C0A5
:1048D000220F331F8A95E2F7C9019081892B8083CB
:1048E0001A012B013FEF231A330A430A530A0F5FC1
:1048F0001F4F9BCFB12CF401208231824282538220
:10490000B1102DC0B3018B859C850E948E1AB82EE4
:10491000811125C0EB85FC85EB5BFE4FE080F180CB
:10492000EB85FC85EF5BFE4F06E010E020E030E019
:10493000AE014F5F5F4F60EB80810E94A423892B03
:1049400011F09CEEB92EF301DE011196C30106961B
:1049500031912D91321320C0E817F907C9F78B2D3B
:104960002F960FB6F894DEBF0FBECDBFDF91CF916B
:104970001F910F91FF90EF90DF90CF90BF90AF907D
:104980009F908F907F906F905F904F903F902F906F
:1049900008952EECB22EAFCF8EECB82EE0CFCF9292
:1049A000DF92EF92FF920F931F93CF93DF9300D08C
:1049B0001F92CDB7DEB76A01FC01EB5BFE4FE080D2
:1049C000F1808F5B9E4F04E010E020E030E0AE010C
:1049D0004F5F5F4FFC0180810E94A42349815A816F
:1049E00054274527542770E060E0762F652F542F19
:1049F00044272B81422B762F652F542F44272C815F
:104A0000422BF6014083518362837383892B71F4B7
:104A100080E00F900F900F900F90DF91CF911F913A
:104A20000F91FF90EF90DF90CF9008958CEEF1CF33
:104A3000CF92DF92EF92FF920F931F93CF93DF936A
:104A40001F921F92CDB7DEB76A01FC01EB5BFE4FF0
:104A5000E080F1808F5B9E4F02E010E020E030E0CC
:104A6000AE014F5F5F4FFC0180810E94A42329812A
:104A70003A81322723273227F60131832083892B7D
:104A800061F480E00F900F90DF91CF911F910F9113
:104A9000FF90EF90DF90CF9008958CEEF3CFEF92E0
:104AA000FF920F931F93CF93DF931F921F92CDB767
:104AB000DEB78C017A016330710509F449C090F4C6
:104AC0006130710509F162307105E1F1F80181A9E8
:104AD00092A9A3A9B4A9F70180839183A283B38388
:104AE00080E049C06630710588F7AE014F5F5F4FC7
:104AF00064E60E94182581113EC0298180E0922F32
:104B0000990FB0E0A0E0E7CFAE014F5F5F4F64E4E4
:104B10000E94182581112FC0998120E0392F330F71
:104B2000A90170E060E0232BD1F0F70140835183AD
:104B300062837383F80145AB56AB67AB70AF91E00E
:104B400096A319C0FC0181AD92ADA3ADB4ADC3CFA6
:104B5000FC01FD9680819181A281B381BCCFF801D7
:104B600045A956A967A970ADF701408351836283B7
:104B70007383F80116A20F900F90DF91CF911F91D0
:104B80000F91FF90EF9008958F929F92AF92BF92F6
:104B9000CF92DF92EF92FF920F931F93CF93DF9309
:104BA0001F921F92CDB7DEB7962ED42E822EFC0117
:104BB000EF5BFE4FC0805C012BEBA21A2EEFB20A16
:104BC000F501E080F18001E010E020E030E0AE018E
:104BD0004E5F5F4F8C2D0E94A423892BA9F42A815C
:104BE0002D2128292A83F501E080F180298301E025
:104BF00010E020E030E0AE014F5F5F4F692D8C2D5B
:104C00000E94FD19892B81F08CEE0F900F90DF919F
:104C1000CF911F910F91FF90EF90DF90CF90BF90B9
:104C2000AF909F908F90089580E0EFCFEF92FF922A
:104C30000F931F93FC01EB5BFE4FE080F1808F5BD5
:104C40009E4F01E010E020E030E0FC0180810E94F6
:104C5000A423892B31F08CEE1F910F91FF90EF90E0
:104C6000089580E0F9CFEF92FF920F931F93CF93B7
:104C7000DF931F92CDB7DEB77C0100E041E06BE02F
:104C8000C7010E94661A182F40E06BE0C7010E941E
:104C9000661A182BAE014F5F5F4F63E1C7010E9498
:104CA0001626812B0F5F9981977061F0033061F0B8
:104CB000882321F30F90DF91CF911F910F91FF90E7
:104CC000EF9008950330B1F784EFF4CF0F931F9363
:104CD000CF93DF931F92CDB7DEB78A01AE014F5F4E
:104CE0005F4F613081F060E50E941626811105C09A
:104CF00099819F5F990FF80190830F90DF91CF9179
:104D00001F910F91089560E7EFCFCF92DF92EF925E
:104D1000FF921F93CF93DF931F92CDB7DEB77C0135
:104D200040E063E80E94661A182F811117C0D12C49
:104D3000C12CAE014F5F5F4F63E8C7010E9416268A
:104D4000182F898181110AC0111108C08FEFC81A6C
:104D5000D80A88ECC816D10461F719EF41E063E87E
:104D6000C7010E94661A812B0F90DF91CF911F918E
:104D7000FF90EF90DF90CF900895CF92DF92EF9267
:104D8000FF920F931F93CF93DF931F92CDB7DEB7A0
:104D90007C0110E000E06C018EECC80ED11CF60125
:104DA0008081AE014F5F5F4F8430A9F463E1C7019A
:104DB0000E9416269981292F2770987111F5882352
:104DC000D9F00F90DF91CF911F910F91FF90EF904D
:104DD000DF90CF90089564E1C7010E9416268111EB
:104DE000F0CF998190FDEDCF0F5F1F4F083C11056B
:104DF00031F00E941D07D3CF2430B1F7E2CF89EF05
:104E0000E0CF8AEFDECFCF93DF93EC01462F4160F6
:104E100060E00E94661A811111C0CE010E94BD2679
:104E200081110CC0CE010E943326811107C040E0E1
:104E300060E0CE01DF91CF910C94661ADF91CF91A3
:104E400008950F931F93CF93DF931F92CDB7DEB7D3
:104E50008B011982AE014F5F5F4F61E00E94162601
:104E6000811116C0998194FB332730F9F801308302
:104E700093FB332730F9328392FB332730F93183A8
:104E800096FB222720F92383991F9927991F948342
:104E90000F90DF91CF911F910F9108952F923F9224
:104EA0004F925F926F927F928F929F92AF92BF923A
:104EB000CF92DF92EF92FF921F93CF93DF9300D0B8
:104EC00000D000D01F921F92CDB7DEB76C011A013F
:104ED0001B861F821E82623009F06EC0AE01465FE3
:104EE0005F4F60E00E946626182F811108C0AE0156
:104EF000455F5F4F66E4C6010E941626182FAA85FB
:104F0000B0E020E03FE24AE350E00E9471642B01F0
:104F10003C0124EF420E21E0521E611C711CCB8427
:104F2000D12CF12CE12C8FEFC81AD80AE80AF80A24
:104F300098EE892E93E0992EA12CB12CC301B201D9
:104F4000A50194010E948464CA01B901A7019601D8
:104F50000E942F666B017C01C301B20120ED37E096
:104F600040E050E00E948464C701B601620F731FE5
:104F7000841F951FA50194010E948464F101208380
:104F8000318342835383812F2B960FB6F894DEBF73
:104F90000FBECDBFDF91CF911F91FF90EF90DF90BB
:104FA000CF90BF90AF909F908F907F906F905F90C9
:104FB0004F903F902F900895633009F043C0AE01A9
:104FC000465F5F4F60E00E946626182F20E030E0C9
:104FD000A9018111D3CFAE01465F5F4F60E0C601EA
:104FE0000E946626182F811108C0AE014A5F5F4FEC
:104FF00061E5C6010E941825182FEE81FF81AA8560
:10500000B0E020E03FE24AE350E00E9471642B01EF
:105010003C0124EF420E21E0521E611C711C6F0105
:10502000DD24F12CE12C04C0CC0CDD1CEE1CFF1C9B
:10503000FA95D2F78FEFC81AD80AE80AF80AEE24D0
:10504000FF2476CFBE016F5F7F4F0E9421278C81A6
:10505000882351F1AE01465F5F4F60E0C6010E94B8
:105060006626182FF12CE12C81111BC0AE014A5F7E
:105070005F4F61E5C6010E941825182F2E813F81E0
:10508000C9019927B0E0A0E004C0880F991FAA1FAA
:10509000BB1F3A95D2F70196A11DB11D7C011123CA
:1050A00029F0D12CC12C25C0F12CE12CAE01465F9A
:1050B0005F4F61E0C6010E946626182F8111F1CF73
:1050C000AE01485F5F4F61E7C6010E941825182FA7
:1050D00028853985C9019927B0E0A0E004C0880F70
:1050E000991FAA1FBB1F3A95D2F70196A11DB11DAA
:1050F0006C01AA85B0E020E03FE24AE350E00E9464
:1051000071642B013C01E4EF4E0EE1E05E1E611C78
:10511000711C88EE882E83E0982EA12CB12CC3013F
:10512000B201A50194010E948464D601AE19BF09A1
:105130000E9471640FCF4F925F926F927F92BF92E5
:10514000CF92DF92EF92FF920F931F93CF93DF9353
:1051500000D01F92CDB7DEB78A01AE014F5F5F4F1F
:105160000E944E27B82E81112AC069817A818B81D5
:105170009C8128EE422E23E0522E612C712CA3013B
:1051800092010E94846469017A019B01AC01AFEF36
:10519000BFEF0E9471646C507E4F8F4F9F4FA301F1
:1051A00092010E9484647601DD24CC24C20ED31EB9
:1051B000E41EF51EF801C082D182E282F3828B2DBB
:1051C0000F900F900F900F90DF91CF911F910F9143
:1051D000FF90EF90DF90CF90BF907F906F905F90A7
:1051E0004F9008955F926F927F928F929F92AF92AD
:1051F000BF92CF92DF92EF92FF920F931F93CF93C4
:10520000DF93CDB7DEB761970FB6F894DEBF0FBE60
:10521000CDBF7C018B01FC018089FB018083AE0145
:105220004A5F5F4F68EFC7010E941825582E811111
:105230003AC1AE014F5F5F4F64E0C7010E94CF24C7
:10524000582E811130C12E813F812115310569F021
:1052500050E040E069817A818B819C810E94846466
:10526000F8012683378340875187F801868197812B
:10527000A085B185F701868B978BA08FB18FF80140
:105280001286AE014F5F5F4F60E2C7010E94182592
:10529000582E811108C189819A81009709F01AC19D
:1052A000F701858D968DA78DB0A1F801858796872A
:1052B000A787B08BF701128EAE014F5F5F4F68E298
:1052C000C7010E941825582E8111EDC089819A814D
:1052D0009F708115F8E09F0708F090514AEF489FB2
:1052E0009001499F300D1124C901330FAA0BBB0B4C
:1052F000F801818B928BA38BB48B5801F1E2AF0E36
:10530000B11C470125E2820E911C380185E1680E2F
:10531000711CD12CC12CA501B601C7010E944F25DB
:10532000582E8111C0C0F40181914F01F301819386
:105330003F01FFEFCF1ADF0A24E0A20EB11C86E086
:10534000C816D10441F7AE014F5F5F4F61E0C7015E
:105350000E941626582E8111A6C08981F701E35EAE
:10536000FE4F808387FFCAC081E0F80181AFF8015A
:1053700081ADF701E75BFF4F808380ED97E0A0E010
:10538000B0E08A879B87AC87BD871E821F82188604
:10539000198686E39BE0A0E0B0E0F8018283938366
:1053A000A483B583BE016F5F7F4FC7010E94212791
:1053B000582E811178C08981811107C08A8181119D
:1053C00004C08B81882309F43EC0AE01465F5F4F65
:1053D00062E0C7010E944E278111C1C089818823E4
:1053E000A9F08A859B85AC85BD85825B9D4FAF4FBB
:1053F000BF4FF8014281538164817581840F951FED
:10540000A61FB71F82839383A483B5838B818823D0
:1054100009F477C08A859B85AC85BD858E549D4FE8
:10542000AF4FBF4F880F991FAA1FBB1FF8014281C2
:10543000538164817581840F951FA61FB71F8283D6
:105440009383A483B5838C81811168C08D81882367
:1054500001F1AE01425F5F4F64E0C7010E944E2739
:105460008E849F84A888B988F6E28F0EF2E09F1E92
:10547000A11CB11CF8014281538164817581480DE2
:10548000591D6A1D7B1D428353836483758381117B
:1054900066C0F80182819381A481B581F701828B76
:1054A000938BA48BB58B852D61960FB6F894DEBFD8
:1054B0000FBECDBFDF91CF911F910F91FF90EF9065
:1054C000DF90CF90BF90AF909F908F907F906F9024
:1054D0005F90089533E0880F991F3A95E1F7B0E0A7
:1054E000A0E0F80185879687A787B08BF701858FA5
:1054F000968FA78FB0A381E0828FDECEF80111AE28
:1055000036CF8A81882309F49ECF8A859B85AC8516
:10551000BD858C569D4FAF4FBF4F88CFAE014A5FC0
:105520005F4F63E0C7010E944E278E809F80A88452
:10553000B984F4E98F0EF2E09F1EA11CB11CF801A2
:105540004281538164817581480D591D6A1D7B1DFF
:105550004283538364837583882309F477CF582E5D
:10556000A2CF5F926F927F928F929F92AF92BF92E3
:10557000CF92DF92EF92FF920F931F93CF93DF931F
:10558000DC011496ED91FC91EF2B09F45DC06901EB
:105590003A018B01EC0188810E94110720E041E073
:1055A00050E0B801CE010E94C216582E882309F49B
:1055B0004BC0F12CE12C8C819D8186010E191F09B5
:1055C0008017910708F48C0141E0C601801B910B04
:1055D000E816F90608F440E0602F88810E94E01682
:1055E00010922B0F80932A0F8017110669F5430143
:1055F0008E0C9F1C5401C5018819990980179107C9
:1056000068F489819A81DC01ED91FC910284F38533
:10561000E02D1995F50181935F01EDCFE00EF11EAC
:10562000EC14FD0440F2852DDF91CF911F910F9175
:10563000FF90EF90DF90CF90BF90AF909F908F90B2
:105640007F906F905F900895512CEDCFCF93DF93B3
:105650001F921F92CDB7DEB71A82198280688983A4
:1056600022E030E0AE014F5F5F4FBA018091391008
:1056700090913A100E94B12A89819A810F900F90DF
:10568000DF91CF9108959F92AF92BF92CF92DF9218
:10569000EF92FF920F931F93CF93DF931F92CDB79B
:1056A000DEB77C015B016A01922E198241E06FEF47
:1056B0000E94661A182F40E060E0C7010E94661A37
:1056C000182B40E06FEFC7010E94661A182B992033
:1056D00031F0A5016BECC7010E941626182B0023A0
:1056E00041F0AE014F5F5F4F6EEEC7010E9416267C
:1056F000182B41E06FEFC7010E94661A182B41E09A
:1057000060E0C7010E94661A182B40E06FEFC701E6
:105710000E94661A99819F7EF6019083812B0F90DB
:10572000DF91CF911F910F91FF90EF90DF90CF907D
:10573000BF90AF909F9008952F923F924F925F92AB
:105740006F927F928F929F92AF92BF92CF92DF9291
:10575000EF92FF920F931F93CF93DF93CDB7DEB7F6
:1057600069970FB6F894DEBF0FBECDBF00ED17E00E
:1057700020E030E00B871C872D873E871F86188A24
:10578000198A1A8A40322EE4520761057105E0F445
:105790005CEFB52E8B2D69960FB6F894DEBF0FBE69
:1057A000CDBFDF91CF911F910F91FF90EF90DF90D0
:1057B000CF90BF90AF909F908F907F906F905F90B1
:1057C0004F903F902F9008954E8B5F8B688F798F0D
:1057D0008C01BE016A5F7F4F0E942127B82E811184
:1057E000D9CFCE88DF88E88CF98C88EEC81A88E09B
:1057F000D80AE108F1088E81811106C08F818111DC
:1058000003C088858823C1F1AE01455F5F4F62E028
:10581000C8010E944E2781110AC18E81882391F010
:105820008B859C85AD85BE85825B9D4FAF4FBF4FFD
:105830008C159D05AE05BF0508F0AACFC81AD90A78
:10584000EA0AFB0A8885882309F471C08B859C8548
:10585000AD85BE858E549D4FAF4FBF4F880F991FAA
:10586000AA1FBB1F8C159D05AE05BF0508F090CF84
:10587000C81AD90AEA0AFB0A89858823D9F0AE0139
:10588000415F5F4F63E0C8010E944E274F855889F2
:1058900069897A894C565D4F6F4F7F4F4C155D0576
:1058A0006E057F0508F074CF8111C1C0C41AD50AF6
:1058B000E60AF70A8A85882309F46CCFBE016F5F78
:1058C0007F4FC8010E9421278C818823E9F1AE0116
:1058D0004B5E5F4F60E0C8010E946626B82E8111C2
:1058E0001CC0AE014D5E5F4F61E5C8010E941825E6
:1058F000B82E8B899C891C013324512C412C04C067
:10590000220C331C441C551C9A95D2F79FEF291A80
:10591000390A490A590ABB20C9F08E899F89A88D86
:10592000B98DF801828B938BA48BB58B33CF8F818C
:10593000882309F4A1CF8B859C85AD85BE858C56C7
:105940009D4FAF4FBF4F8ECF312C212CAE014B5E00
:105950005F4F61E0C8010E946626B82E8111DDCF3D
:10596000A6E2CA1AA2E0DA0AE108F108AD89B0E0BD
:1059700020E03FE24AE350E00E9471644B015C0189
:10598000B4EF8B0EB1E09B1EA11CB11CA8EEB3E0DE
:10599000A70196010E9471642B013C01C501B4016D
:1059A00020ED37E040E050E00E948464420E531E38
:1059B000641E751EC501B40128EE33E040E050E0DE
:1059C0000E948464C301B2010E948464220E331ECB
:1059D00021143104E1F04101B12CA12CE1E08E1A37
:1059E0009108A108B10890E080E0B501A401442726
:1059F000452B462B472B31F0B694A7949794879468
:105A00000196F3CF982F88271C01280C391CA1017F
:105A100061E7C8010E943B1AB82E81117ECFF801C0
:105A2000E153FF4FC082D182E282F38276CFB82E5B
:105A3000B1CE7F928F929F92AF92BF92CF92DF9220
:105A4000EF92FF920F931F93CF93DF931F92CDB7E7
:105A5000DEB77C015B016A01722E4C0183EE881A6D
:105A60008EEF980AF4011081198241E061E0C701CC
:105A70000E94661A81114AC060E4C7010E94032790
:105A8000811144C0F1E07F121AC000E021E0AE01B4
:105A90004F5F5F4FB501C7010E94432B882389F0F8
:105AA0000F90DF91CF911F910F91FF90EF90DF90BA
:105AB000CF90BF90AF909F908F907F900895F50109
:105AC000108242E061E0C7010E94661A811124C081
:105AD00060E0C7010E94032781111EC0F1E07F1220
